:020000040800F2
:10000000C0FF0020F95B0008955A0008975A0008C5
:10001000995A00089B5A00089D5A000800000000E9
:100020000000000000000000000000007D540008F7
:100030009F5A00080000000025540008A15A00083B
:100040001D5C0008215C0008255C0008295C000894
:100050002D5C0008315C0008355C0008395C000844
:100060003D5C0008415C0008455C0008495C0008F4
:100070004D5C0008515C0008555C0008595C0008A4
:10008000A55A00085D5C0008615C0008655C00081A
:10009000695C00086D5C0008715C0008755C000814
:1000A000795C0008AB5A00087D5C0008815C0008A0
:1000B000855C0008895C00088D5C0008915C000884
:1000C000955C0008995C00089D5C0008A15C000834
:1000D000A55C0008B15A0008B75A0008A95C0008DE
:1000E000AD5C0008B15C0008B55C0008B95C0008B4
:1000F000BD5C0008C15C0008C55C0008C95C000864
:10010000CD5C0008D15C0008D55C0008D95C000813
:10011000DD5C0008E15C0008E55C0008E95C0008C3
:10012000BD5A0008ED5C0008C35A0008F15C0008E5
:10013000F55C0008F95C0008FD5C0008015D000842
:10014000055D0008095D00080D5D0008115D0008EF
:10015000155D0008195D00081D5D0008215D00089F
:10016000255D0008295D00082D5D0008315D00084F
:10017000355D0008395D0008000000000000000047
:100180003D5D0008415D0008455D0008495D0008CF
:100190004D5D0008515D000800000000555D00083D
:1001A000595D00085D5D00080000000000000000CF
:1001B000615D00080000000000000000655D0008AF
:1001C000695D00086D5D0008715D0008755D0008DF
:1001D000795D00087D5D000870B5DFF8604C94B073
:1001E0001021204601F063FBDFF8545C2968686841
:1001F000DFF8846D0A2202FB0101A1F5047100EE13
:10020000101A86ED1A0A00F0CBF9BCEEC00A86ED92
:10021000190A0022736E1021204601F0DCFB06F162
:100220001C0000F04DFD0FA80FF2540100F020FD5E
:1002300000210FA801F043FCA86014220AA80FF2C5
:10024000540101F0A1FC00210AA801F038FCE8608B
:10025000142205A80FF2500101F096FC002105A818
:1002600001F02DFC2861142268460FF2500101F0C4
:100270008BFC0021684601F022FC686114B070BD5F
:10028000485B0008D10200080200000000000000E6
:10029000E8030000505B0008AF050008FDFF000008
:1002A00000000000E8030000585B0008E7050008B4
:1002B0000300000000000000E8030000685B000885
:1002C000C5080008FDFF000000000000E803000072
:1002D0002DE9F84FDFF8A04DDFF8A88CDFF85CBB04
:1002E000DFF8A49CDFF8A46CDFF8907D42F2107A6E
:1002F0000A2578E044281CD1412908BF432A70D13F
:1003000000F049F9F178307915FB0101A1F504718C
:1003100000EE101A87ED1A0A00F042F9BCEEC00A8E
:1003200087ED190A00227B6E1021584601F053FB1D
:1003300057E0432806D1412908BF4E2A51D100F089
:100340002AF94EE04A2810D1542904BF412A472BEC
:1003500047D1052206F11401484601F0C0FD0120F5
:1003600038660020B861F8653BE096F804C0732851
:100370006BD16D2904BF342A6F2B32D1BCF16E0FC3
:1003800076D100F0FEF83867532038704D20787031
:100390003420B8700FF2C8100088ADF80000534642
:1003A0000222694600F053FC00F04CFD00F0DFF83B
:1003B000002200F048FD00F0DAF800F043FD00F004
:1003C000D6F8002200F03FFD00F0D1F800F03AFD31
:1003D00000F0CDF8002200F036FD00F0C8F800F083
:1003E00031FD00F03DFCB8690028FAD014223146F6
:1003F000484601F094FD0028F3D13078412801BF30
:1004000071784429B078432807D100F0C4F800205F
:10041000F86501F0B6F90120F8653078F378B27824
:10042000717855287FF466AF412904BF522A542BB6
:10043000D7D1042200F0B0F80020F865B86100F0D0
:1004400033FE0120F865B861CBE7612824D1652926
:1004500004BF732A6F2BC4D1BCF16E0F2FD100F0F3
:1004600090F87867412000F086F80FF2F80093E7E3
:10047000BCF1660FB5D100F089F8532038734D20D8
:1004800078733420B873072207F10C01484601F055
:1004900026FD0028F7D187E764281BD1652904BF12
:1004A000732A6F2B9DD1BCF16E0F24D100F069F837
:1004B000B867442000F05FF80FF2AC006CE7BCF1C5
:1004C000660F8ED100F062F84120387345207873B2
:1004D0005320D7E7742819D1642908BF732AF0D1B3
:1004E0006F2BEED1BCF16E0F2BD100F04AF8F867FC
:1004F0000FF2780050E7BCF1660FE2D100F046F849
:1005000044203873452078735320BBE7412808BF47
:10051000442915D1372A08BF352B11D1142200F0F8
:100520003BF80420002107F11C03325C43F8212032
:10053000401C491C1029F8DB07F11C0000F0C0FB2F
:100540004FE7BCF1660FFBD100F020F8082206F15E
:100550003001484601F0C3FC0028F7D124E7000031
:10056000730A0000610A0000640A0000740A4FF474
:10057000FA7001F0BBBA3870452078705320B8701B
:1005800070470020F8650120F86670470120F86583
:100590000020F866704703223146484601F09FBCB0
:1005A000B8EEC00AF2EE040A80EE200A6AE32DE9F2
:1005B000F041DFF8C449DFF8D079DFF8BC8A04F1F4
:1005C000800540F6B836E06D48B14FF48071404682
:1005D00002F09BF80D222946384601F080FC304697
:1005E00001F084FAEFE72DE9F84F84B0DFF8904A84
:1005F000DFF8949904F12C0004F121050190C2E088
:1006000000F045F90861019A506101998861019AE9
:10061000D0619FE03022227161712A780A2A02F1AA
:10062000300305DB3126267502F12606667502E0E9
:1006300030262675637595F801C0BCF10A0F0CF1E0
:10064000300E05DB312626730CF12606667303E0B7
:100650003026267384F80DE0AE780A2E06F1300AB3
:1006600005DB3127277706F12607677703E0302778
:10067000277784F81DA02B71E97085F805E085F8CF
:1006800006A0EA712E72687285F80AC0FF200199EF
:100690000BF1010B88636423062204F1100100F0C2
:1006A00005F90028F7D100F004F90028FBD100F08B
:1006B000F9F86423062204F1080100F0F7F8002895
:1006C000F7D100F0F6F80028FBD100F0EBF8642336
:1006D0000622214600F0EAF80028F8D100F0E9F8F7
:1006E0000028FBD100F0DEF86423062204F1180193
:1006F00000F0DCF80028F7D100F0DBF80028FBD18F
:1007000000F0D0F81026761C102EC0F29A800199C5
:10071000FF20886308F10108B8F1100F67DB029829
:10072000401C1028029060DB0398401C10280390A6
:1007300059DBBBF1010F7FF463AF00F0A8F8687AD2
:1007400008610199E87948610199287A88610199DD
:10075000A87AC86100F0B4F80FF22C10026802A960
:100760000A604FF47A73032202A900F0A5F800286A
:10077000F7D10121DFF80409C165002101660121DB
:10078000816100F06DFADFF8F408006E0028F8D0FF
:100790000FF2F80000880199ADF800004FF0000B4F
:1007A000FF20086001994860019A90600199C86033
:1007B000019A106101994861019A90610199C8619B
:1007C000019A106201994862019A90620199C86287
:1007D000019A106301994863019A9063019900F0AE
:1007E0006EF8CDF80CB0002102914FF0000803988C
:1007F000029988421CBF404541458BD0287085F83E
:1008000001800298019984F8200094F82000086380
:100810000199287848630199687800F050F81E2003
:1008200001F064F900F014FB012802D100F010FB84
:1008300001287FF46FAF00F00BFB01287FF467AF56
:100840000026039886421EBF0298864246453FF422
:100850005AAFAE700199A878886300F031F800F0C3
:10086000E4F900F09AFB01287FF44DAF94F82000E2
:100870000A2800F13001FFF6CDAE3122227100F1DD
:1008800026026271C9E60000454E44002C20019901
:10089000FF200863019A506301998863019AD0632D
:1008A000019970474FF47A7001F020B9484601F081
:1008B0005FBA642302226946484601F059BAC86308
:1008C0000198FDE12DE9F84FDFF8AC46DFF8B4669A
:1008D000DFF8B486DFF8A097DFF8A8A792B004F19C
:1008E000900542F2107BCAE000F0C5F90120E066F5
:1008F00020670020E06509222146404601F0EFFA1A
:100900000028F8D1D6E000F07EF9C0F2EA8000F0CD
:100910008CF900F09FF900F088F900F089F900F0F7
:1009200079F90028FBD100F08FF900F087F900F089
:1009300078F9606F002827D000F09DF90FF2B4110C
:1009400000F091F90FF2D01109A800F08DF90127FC
:1009500001F03EFF00F04EF9ACBF5731303100F0EE
:1009600052F9F5DB00F061F900F074F900F05DF97F
:1009700000F05EF900F04EF90028FBD100F064F9B8
:1009800000F05CF900F04DF9A06F002838D000F0BD
:1009900072F90FF2A81100F06AF90FF2B41105A86C
:1009A00000F066F9012701F013FF00F023F9ACBF56
:1009B00057313031217505A9207DC8557F1C112F75
:1009C000F1DB00F032F95B46122200F045F900F04D
:1009D0002CF95B46122205A900F02DF94FF4805343
:1009E000122200F01AF90028F8D15B46112205A95D
:1009F00000F02DF95B46122200F022F900F011F907
:100A0000E06F002839D000F036F90FF2581105A830
:100A1000342201F0B9F80FF2801100F028F9012713
:100A200001F0D6FE00F0E6F8B4BF30315731217541
:100A3000207D0DF807007F1C112FF1DB00F0F5F889
:100A40005B46322205A900F0F6F800F0EEF85B46AE
:100A5000122200F001F94FF48053122200F0DDF869
:100A60000028F8D15B461122694600F0F0F85B4699
:100A7000122200F0E5F800F0D4F800F0F1F80421BB
:100A8000504601F015FEC8B9E06E00283FF42CAFC7
:100A900001224FF48071484601F01DFE0020E066FF
:100AA0000120E065072204F10C01404601F017FA2D
:100AB0000028F7D141F2883001F018F8E16E0029E2
:100AC000DBD0206F00283FF434AF00F0D4F80FF2F1
:100AD000DC0100F0C8F80FF2F80109A800F0C4F832
:100AE000012701F075FE00F085F8ACBF57313031B9
:100AF00009E700006B30313233343536373839612D
:100B00006263646566303132333435363738396183
:100B100062636465660A0000703031323334353602
:100B20003738396162636465663031323334353663
:100B30003738396162636465660A00006B303132B0
:100B4000333435363738396162636465660A0000CC
:100B50007030313233343536373839616263646529
:100B6000660A00006B30313233343536373839613C
:100B70006263646566303132333435363738396113
:100B80006263646566303132333435363738396103
:100B900062636465660A0000703031323334353682
:100BA0003738396162636465660A00006B30313240
:100BB00033343536373839616263646566303132D3
:100BC000333435363738396162636465660A00004C
:100BD00070303132333435363738396162636465A9
:100BE00066303132333435363738396162636465A3
:100BF000660A00000F2190FBF1F1C1EB0111411ACF
:100C0000C9B20A297047217509A9207DC8557F1CE2
:100C1000212F70474FF4805322222946304601F09D
:100C2000FCB84FF4FA6000F061BF142000F05EBF22
:100C30005B46222209A9304601F09AB85B4622227F
:100C40002946404601F094B85B46212209A9404656
:100C500001F08EB85B4622226946304601F088B822
:100C6000012000F043BF6846242200F08DBF684693
:100C7000142200F089BF00224FF48071484601F031
:100C80002ABD00009FEDBD1AF0EE400AF4EE410AC5
:100C9000F1EE10FA9FEDBA0A00D4704780B520EE4D
:100CA000800A10EE100A01F0E7FD4FF06632DFF81F
:100CB000883B01F005FE01F027FF00EE100A01BDA0
:100CC000F8B505460F27DFF8B06355F82700FF2871
:100CD00018D00F2455F8270084420CBF01220022AF
:100CE00000F0D2F900BF00BF00F069F800BF00BFFC
:100CF00000BF00BF00BF00BF00F06BF800BF641E64
:100D0000E8D511E0102400F05FF800BF00BF00F04C
:100D100056F800BF00BF00BF00BF00BF00BF00F01B
:100D200058F800BF641EEED17F1E072FCDDC0727C9
:100D300055F82700FF2818D00F2455F827008442C3
:100D40000CBF0122002200F09FF900BF00BF00F09D
:100D500036F800BF00BF00BF00BF00BF00BF00F0FB
:100D600038F800BF641EE8D511E0102400F02CF81C
:100D700000BF00BF00F023F800BF00BF00BF00BFEE
:100D800000BF00BF00F025F800BF641EEED17F1E3B
:100D9000002FCDD500BF00BF00BF00BF0022022141
:100DA00000F073F900BF00BF00BF00BF01220221A5
:100DB00000F06BF900BF00BF00BF00BFF1BD012212
:100DC0008021304601F087BC00224021304601F0EE
:100DD00082BC00228021304601F07DBC10B5DFF8D6
:100DE0005C4A01224FF4804100F02FF82046BDE814
:100DF000104000224FF4804101F06DBC10B5DFF8C7
:100E00003C4A00224FF4804100F01FF801224FF4C9
:100E1000005100F01AF8FFF7E1FFFFF7DFFFFFF7DF
:100E2000DDFFFFF7DBFFFFF7D9FF00224FF4005192
:100E300000F00BF8BDE81040D0E70000A0FB002058
:100E40004C77002001224FF48071204601F043BC12
:100E5000F8B5DFF8EC498B4EDFF8E8590020206246
:100E600060620027FFF7CAFF052000F03FFE00F098
:100E70000FF9FFF7B3FF00F011F9FFF7AFFF00F034
:100E80000DF9FFF7ABFF0221304601F011FC0128FC
:100E900018BF002045F827007F1CFFF79FFF202F79
:100EA000F1DD00F0F5F8FFF799FF00F0F1F8FFF73A
:100EB00095FF00F0F3F8FFF791FF28686968AA68CA
:100EC00000EB4100E96800F063F820606969286977
:100ED000AA6900EB4100E96900F05AF86060696AAC
:100EE000286AAA6A00EB4100E96A00F051F8A060A4
:100EF000696B286BAA6B00EB4100E96B00F048F8C6
:100F0000E060696C286CAA6C00EB4100E96C00F0B1
:100F10003FF82061696D286DAA6D00EB4100E96D15
:100F200000F036F86061696E286EAA6E00EB410031
:100F3000E96E00F02DF8A061696F286FAA6F00EBD1
:100F40004100E96F00F024F8E061216A626A002044
:100F500055F82030012B0CBF491C521C401C202886
:100F6000F6DB202918BF202A6262216201D100200D
:100F7000F2BD0120F2BD00006477002034335340FD
:100F800000F07F45FCFA0020BCFA002030780020F9
:100F900000EB820000EBC100704770B5DFF8A45889
:100FA0004FF48071284601F0E3FDFFF727FFFFF7BC
:100FB00057FE344E00F06CF8FFF710FF00F068F8B1
:100FC000FFF70CFF00F06AF8FFF708FF00F066F883
:100FD000FFF704FF202401224FF4004100F055F8F0
:100FE000FFF7FCFE641EF6D100F052F8FFF7F6FEA4
:100FF00000F04EF8FFF7F2FE00F050F8FFF7EEFEBB
:1010000000F046F8FFF7EAFE00F048F8FFF7E6FECA
:1010100000F044F8FFF7E2FE4FF40041304601F0E3
:1010200074FB0221304601F043FB012818BF002069
:1010300045F82400641CFFF7D1FE202CECDB0020D7
:1010400055F82010012902D0401C2028F8DB05EBC0
:101050008000016842688368C06801EB420101EBCF
:101060008301DFF8E42701EBC0010529116001D1FC
:10107000012070BD002070BD000002406477002098
:1010800068780020000402404021304601F023BB74
:1010900001224FF40051304601F01DBB00224FF4F5
:1010A0000051304601F017BB2DE9F84FDFF89C677F
:1010B000DFF89C57DFF8844747F218702DED108B4E
:1010C000371882B00020786078624FF00009C6F8C7
:1010D000449000F04DFB4FF416704FF0000B00F001
:1010E00005FDDA46D04600F047FB012804D1AB45A8
:1010F000B8BF0BF1010BF6DBF5E2AA45B8BF0AF168
:10110000010AC0F2F482F7E2C7F8049000203861C7
:10111000F860B86038639FEDAA8A87ED058A786227
:10112000B862002200F01DFB0A604A60FADB00F0A2
:1011300023FB0128FBD0386941F65811711801EBE7
:10114000C0019FEDA09B81ED009B401C3861B868F9
:10115000B8B9396940F6B8308142F8DA00F00CFBD2
:10116000012841F658103969304400EBC1002AD1FA
:101170000022DFF8E036C0E900233969491C3961F3
:10118000E7E7002440F6B830A146A24600259FEDCF
:101190008F9B4FF00C0B009041F65810301800EB6D
:1011A000C500DFF8B016D0E90023002001F0E4FC10
:1011B0000AF1010A09F101080AD114B94FF0010A34
:1011C000C146012409E080ED009B0120B860D4E70E
:1011D00014B14FF0010AC14600240BFB09F806EBDD
:1011E00008006D1C8465C0F85CA0504601F0D4FC7A
:1011F00053EC192B01F0E2FC01F086FC06F16001D2
:1012000041F8080000988542C6DBB0EE480A00208D
:10121000012120E006F160020BFB01F31A44D2ED3C
:10122000000AF4EE480AF1EE10FA06D5FA693A62BD
:10123000B0EE480AB0EE608AF961F4EE400AF1EED1
:1012400010FA41BFB4EE608AF1EE10FAB0EE600A17
:101250003962401C491C4945DCDB87ED060AB8624F
:1012600087ED058A0021002006F6F872002402EBC3
:10127000C003401CB0F5967F1C605C60F7DBBB6A66
:1012800006F1600C14E006F160090BFB05FAD1448D
:1012900090ED000A00F05EFA05D1D0F8049009F153
:1012A0000109C0F804906D1C9D42ECDB491C641CD4
:1012B0009C421CDA0020002509E002EBC50AE1444B
:1012C0009AED000A00F046FA08BF01206D1C9D420D
:1012D0000BFB04F9F1DB0028E9D106F1600502EB14
:1012E000C10055F80950056000254560DCE7F9624A
:1012F0000020002400F035FA0C604C60FADBD7F8CF
:101300002C90A64610E049B10098296802EBC00075
:1013100001606968416085ED000A6B6004F66860F1
:10132000C0ED000AC0F804C0CE4536DA06EBCE04A4
:1013300004F6F8750EF1010ED5F804C0D5ED000ADB
:101340000021F24624E006F6686B0BEBC80B08F1AF
:1013500001089BED001AF4EE410AF1EE10FA08BF05
:101360000120C845EFDB88B902EBCA0090ED001AF6
:10137000B4EE601AF1EE10FA08D5CDF800A0B0EE88
:10138000410A4368D0ED000A9C4601210AF1010A96
:10139000CA45B8DA00208046E3E700249FED698B58
:1013A0009FED6A9B4FF4614B9FED6AAB4FF4E138C0
:1013B0009FED6ABB4FF47A3A9FED6ACB1AE000BF0B
:1013C00020BCBE4C000000000000000048E17A1480
:1013D000AE47E13F9FED65FB00F0A6F900F0B0F9E4
:1013E00005D800F0A7F900F0AFF940F2C380632000
:1013F0007862641C4C4536DA06EBC40000F668657A
:1014000097ED000A95ED00EA87ED05EA2EEE00FA69
:101410001FEE100A01F030FA41EC1D0B1EEE100A0F
:1014200001F02AFA41EC1E0B53EC1D2B51EC1C0B66
:1014300001F096FC00F084F916D8B1EE040A2FEE04
:10144000000A10EE100A01F017FA02460B4651ECA2
:101450001C0B01F041FD00F077F905D8C7F824A076
:1014600068680128C5DD88E053EC1D2B51EC1B0B8F
:1014700001F076FC00F064F909D851EC1B0B00F088
:101480005BF900F061F998BFC7F82480E8D953EC04
:101490001D2B51EC1A0B01F063FC00F051F909D837
:1014A00051EC1A0B00F048F900F04EF998BFC7F85C
:1014B00024B0D5D953EC1D2B51EC190B01F050FC85
:1014C00000F03EF90AD851EC190B00F035F900F0A4
:1014D0003BF903D84AF2F8717962C1E753EC1D2B4E
:1014E00051EC180B01F03CFC00F02AF909D851EC42
:1014F000180B00F021F900F027F902D84FF416413B
:10150000EAE79FED85FB00F00FF900F019F907D825
:1015100000F010F900F018F902D84FF49641DBE71B
:101520009FED7FFB00F000F900F00AF903D800F00E
:1015300001F900F009F93FF64DAF4FF41651796209
:101540001BE000BF0AD7A3703D0A3A40A8C64B373C
:10155000894137405C8FC2F5285C31405C8FC2F511
:10156000285C21403333333333330F402DB29DEFAA
:10157000A70A6A404FF496507862FF20706400F02A
:10158000F7F87868306200F0F3F878680F283ED8F2
:10159000DFE800F0080A0E101214161A1E22262A7E
:1015A0002D313539302020E03020F07431202DE00D
:1015B00030201DE030201FE0302021E0302023E0EB
:1015C0003020F074362021E03020F07437201DE008
:1015D0003020F074382019E03020F074392015E004
:1015E0003120F074302011E03120F0740EE0312011
:1015F000F07432200AE03120F074332006E031200C
:10160000F074342002E03120F07435203075786AAF
:10161000B0F5965F60D0B0F5165F56D0B0F5964F36
:101620004DD0B0F5164F42D04AF2F871884238D00A
:10163000B0F5614F2DD0B0F5E13F21D0B0F57A3F44
:1016400009D1322070713520B0713620F071302010
:1016500030727072B072804C052206F11001204683
:1016600000F03DFC0028F6D10F223146204600F064
:1016700036FC0028F8D102B0BDEC108BBDE8F18F2C
:1016800031207071B0713520F0713220307230200D
:10169000DFE7302070713520B0713720F0713620CF
:1016A000F4E7302070713420B0713320CEE7302061
:1016B00070713320B0713820F0713420E6E73020AB
:1016C00070713120B0713920DEE730207071B07157
:1016D0003920F0713620D9E730207071B071342094
:1016E000F0713820D2E7AB45B8BF4FF0010800F0E9
:1016F00043F800283FF401ADAA45B8BF08F101083E
:10170000B8F1010F3FF700AD09F10109B9F1100F70
:10171000BFF6DBACDBE40000B4C876BE9F0A4A40EB
:10172000A69BC420B00A5A4053EC1D2B51EC1F0B52
:1017300001F016BB51EC1F0B53EC1D2B01F0CCBB81
:1017400053EC1E2B01F03ABC02460B4651EC1E0B2B
:1017500001F034BCD9ED000AB4EE600AF1EE10FAE3
:10176000704706F6686101EBC001401C32287047E3
:1017700006F11800FFF7A4BA4FF48061204600F08C
:1017800097BF2DE9F84D354D286C002885B04FD115
:10179000FF262E620027DFF8C8B0DFF8BC800FF20A
:1017A000C40ADAE90012CDE9001207F130008DF821
:1017B0000700C0B23A28A4BF07F137008DF8070030
:1017C000642308226946FFF742FA0028F8D12F6007
:1017D0002846FFF775FAC82000F088F90A2401F0BE
:1017E000BFFC641EFBD1DBF80000012803D10021FF
:1017F0001027CBF8001003A90FF270000088ADF895
:1018000008000F2F0FF26800D0E90023C1E9002380
:10181000404642F210730EBF0522022202A900F0D8
:10182000A7FA7F1C0F2FBCDD2E602846FFF748FA71
:1018300006B0BDE8F08D000066660A400004024074
:1018400078FB002048F60020B4FB002000000020B8
:10185000C0C62D000000F03FBCFA0020D478002064
:1018600068F8002041444330204348007C200000B9
:101870007C7C7C7C2000000010B5040001D101209C
:1018800010BD20682849884202D0F02100F047F8B6
:10189000207920B900216171204601F07FFC0220EF
:1018A00020710020206101202071002010BD38B57A
:1018B0000C0018BF102C054603D04FF4B77100F090
:1018C0002EF86979012901D1022032BD0120687109
:1018D000012202202871A24028680168114301609A
:1018E000002C28680268016809D1520712D501F05E
:1018F000380138290ED1416841F0010109E0520355
:1019000008D501F46011B1F5601F03D1416841F0C1
:1019100002014160012028710020687132BD0FF280
:10192000201001F0FABC000000740040F8B50E462B
:10193000054630680FF20817002818BF24281446FF
:1019400011D00C2818BF14280DD01C2818BF04284B
:1019500009D02C281CBF34283C2804D040F20A317E
:10196000384601F0DAFC7068002818BF022804D05D
:1019700040F20B31384601F0D0FC002C18BF102C7F
:1019800004D04FF44371384601F0C7FC6879012850
:1019900001D10220F2BD012169710220287140F6B7
:1019A000FE7029680A683368A04082437068034368
:1019B000A3401A430A60C0222868016800F005F8B5
:1019C0000120287100206871F2BD02FA04F421EAB6
:1019D0000404046070472DE9FC410C4607460020D2
:1019E000002C18BF102C15461E4600900FF2500810
:1019F00004D040F24231404601F08FFC002D1CBF64
:101A0000042D082D04D040F24331404601F085FCFE
:101A10004FF6F170864204D34FF45171404601F005
:101A20007CFC38680090002C00980CBF08351435F9
:101A30002D180095009806600020BDE8F681000092
:101A4000443A5C45545F53545C4150524A5C415F98
:101A500053545F30383239415C323031385F303284
:101A60005F3032345C4576696C4578706C6F6974B0
:101A70005C447269766572735C53544D33324634FC
:101A800078785F48414C5F4472697665725C537246
:101A9000635C73746D3332663478785F68616C5F51
:101AA0006461632E6300000001460020842918BF92
:101AB000C81C704780B501F00EFD002002BD3EB588
:101AC00004460D46B4F90800FFF7EEFF02A90191A4
:101AD00000902B4622692168606892B201F01EFCDA
:101AE000012801D000203EBD02983EBD80B500B95E
:101AF000012001F0CEFC002002BD80B501F044FEC3
:101B0000012803D0BDE8014001F049BF01BDF0B498
:101B10000246106895681318506803EB5004C0071C
:101B200021D54D441FE0F0BC02F10C00704713F8C2
:101B3000017B05F8017B491EF9D1A0B1B60813F865
:101B4000011B06F00306032E08BF13F8016B01EB1F
:101B500006214942801C294405D011F8016B05F883
:101B6000016B401EF9D1A342DDD013F8016B16F0D2
:101B7000030104BF13F8011BC91C30090F28DAD177
:101B800013F8010B0F30D6E7103A07D330B4B1E8A1
:101B90003810103AA0E83810F9D230BC530724BFEF
:101BA000B1E80810A0E8081044BF51F8043B40F821
:101BB000043BD20724BF31F8022B20F8022B44BF8C
:101BC0000B7803707047121F17D35B0009D151F8CF
:101BD000043B20F8023B1B0C121F20F8023BF6D2FC
:101BE0000BE051F8043B00F8013B1B0A20F8023BD4
:101BF0001B0C121F00F8013BF3D238BF121D521EFE
:101C000024BF11F8013B00F8013BF8D870470000F1
:101C1000F8B5040001D10120F2BD2168A069DFF808
:101C20002851DFF82821DFF82831DFF82861DFF8B4
:101C30002871D0B1B94218BFB14207D0994218BF3C
:101C4000914203D04FF4817100F06EF8A069002832
:101C500018BFB0F5807F2CD0B0F5007F18BFB0F56D
:101C6000407F26D040F2031121E0B94218BFB142B3
:101C70001FD099421CBFDFF8E400814219D0DFF881
:101C8000E000814218BF914213D0DFF8D8008142B2
:101C90001CBFDFF8D40081420BD0DFF8D0008142B6
:101CA0001CBFDFF82804814203D040F2071100F086
:101CB0003BF8A068002818BFB0F5805F03D040F261
:101CC000091100F031F8E069002818BFB0F5004FA5
:101CD00003D04FF4857100F027F804F138056878D7
:101CE00008B900F012F800F015F800F020F8C1680B
:101CF00041F40051C160002000F001F8F2BD6860BD
:101D000020206870A87000207047002129702046AC
:101D100001F0A2BE242068702068C16821F400513F
:101D2000C160204600F060BA284601F0F6BA20688B
:101D3000016921F4904101612068416921F02A0183
:101D40004161206870470000C4230008001401406E
:101D5000004800400044004000100140004C00409A
:101D60000050004000780040007C00400018014016
:101D70002DE9F843054605F138070C467878202808
:101D8000164698463CD1002C14BF002E012038D0B6
:101D90003878012834D00121397021200021796060
:101DA000787001F019FFAE848146EE8403E0296863
:101DB00014F8010B4860E88C28B3E98C481EE884CD
:101DC0004B46A868CDF80080B0F5805F0DD100F0DB
:101DD00081F870B920882968C0F308004860286934
:101DE000002814BF641CA41CE5E700F073F8002869
:101DF000DDD0032005E0202078700020387000E05E
:101E00000220BDE8F283CDF800804B46002240213D
:101E100000F062F80028EED0EBE72DE9F843054624
:101E200005F138070C46B87820281646994649D15E
:101E3000002C14BF002E012045D03878012841D055
:101E400001213970222000217960B87001F0C4FEB0
:101E5000AE858046EE8505E028684168C1F308013B
:101E600024F8021BE88D80B3E98D481EE8854346BF
:101E7000A868CDF80090B0F5805F0ED10022202137
:101E800000F02AF870B928690028E5D02968486868
:101E900000F0FF0024F8010BE4E70022202100F00D
:101EA0001BF808B103200EE0286920B929684868AA
:101EB00004F8010BD6E72868416801F07F0104F8B7
:101EC000011BCFE70220BDE8F2832020B87000207C
:101ED0003870F8E700228021284600F0F9B830B5C4
:101EE00000F138035C78202C17D109B1140001D11E
:101EF000012030BD1C78012C0FD001251D7001621E
:101F00008284C284002159602121597000211970F6
:101F10000068C16841F0800126E0022030BD30B584
:101F200000F138039C78202C1CD109B1140001D198
:101F3000012030BD1C78012C14D001251D70816258
:101F40008285C28500215960222199700021197073
:101F500001684A6942F001024A610068C16841F4BF
:101F6000907101E0022030BDC160002030BD4169A8
:101F700021F040014161606B704738B50446256827
:101F80002968EA686B6911F00F0007D188065DD5F2
:101F900090065BD52046BDE83240DFE0D80702D48A
:101FA00012F4907F52D0C80705D5D00503D5E06B59
:101FB00040F00100E063480705D5D80703D5E06B82
:101FC00040F00200E063880705D5D80703D5E06B31
:101FD00040F00400E063080705D5D80703D5E06B9F
:101FE00040F00800E063E06B00286ED0890604D55D
:101FF000900644BF204600F0B1F820684069E16BCC
:102000000A0701D440061BD5204600F093F820684B
:1020100041694A060FD5FFF7AAFF60B10FF23111EF
:102020000165606B01F050FF00284ED0606B016DC0
:10203000BDE8344008472046BDE8324002F098B879
:10204000204602F095F80020E06331BD08062CD54B
:1020500010062AD594F83900212836D1A168206AC3
:10206000B1F5805F0DD10188C1F308016960206975
:1020700018B9216A881C206207E0206A411C21628D
:1020800003E0411C216200786860E08C401EE0841F
:1020900080B2D0B92068C16821F08001C160206899
:1020A000C16841F04001C16031BD48060DD5500600
:1020B0000BD5E86820F04000E860202184F8391052
:1020C0002046BDE8324002F054B831BD001C01404A
:1020D0002DE9F041069C05460E4690461F462868AD
:1020E00001683140B1420CBF01200020404517D1AA
:1020F00014F1010FF3D024B101F06EFDC01B844236
:10210000EDD22868C16821F4D07100F00CF805F117
:10211000380020214170817000210170032000E00F
:102120000020BDE8F081C160286841694908490084
:10213000416170470168CA6822F49072CA60016800
:102140004A69520852004A61202180F83A107047CB
:10215000806B0021C185C18402F00AB880B590F877
:102160003A1022293ED18268B2F5805F14D1826A8A
:10217000016941B903685968C1F308011180826A95
:10218000911C816218E001684B6803F0FF03138023
:10219000816A4A1C82620FE001690029816A04D1C8
:1021A0004A1C82620268536805E04A1C8262026827
:1021B000536803F07F030B70C18D491EC18589B23E
:1021C00071B90168CA6822F49072CA6001684A69EC
:1021D000520852004A61202180F83A1001F0CAFFEB
:1021E000002002BD022002BD2DE9F04704466449EB
:1021F00060680FF2D015884203D340F68711FFF7CD
:1022000093FDE068002818BFB0F5005F03D040F6EA
:102210008811FFF789FD206900281CBFB0F5806F89
:10222000B0F5C06F03D040F68911FFF77DFD6069FE
:102230004FF6F371084200D118B940F68A11FFF742
:1022400073FD21680A69E06822F4405202430A6182
:102250006425CA684B480240A068024320690243D3
:1022600060690243E0690243CA6019264A69A069AD
:1022700022F4407202434A61E3693F483F4AB3F5A2
:10228000004F3BD1914218BF814210D102F089F832
:10229000074602F086F8804602F083F8814602F095
:1022A00080F806FB09F9824602F07BF80FE002F0A5
:1022B00070F8074602F06DF8804602F06AF8814631
:1022C00002F067F806FB09F9824602F062F86168DD
:1022D000490000F059F8DB003233B3FBF5F35B0043
:1022E000B2FBF5F203F4F87300F05CF8ED00323560
:1022F0006420B5FBF0F000F0070037E0914218BF12
:1023000081420ED102F04DF8074602F04AF88046AD
:1023100002F047F8814602F044F8824602F041F8A4
:102320000DE002F036F8074602F033F8804602F07E
:1023300030F8814602F02DF8824602F02AF806FBBA
:1023400009F96168890000F01FF81B013233B3FB03
:10235000F5F3B2FBF5F203F0F00300F023F82D01E2
:1023600032356420B5FBF0F000F00F002168C3188F
:102370008B60BDE8F08700000014014000100140B0
:10238000A137A000F369FFFF7743B7FBF1F206FB2B
:1023900008F7B7FBF1F3B9FBF1F7B7FBF5F705FB6E
:1023A0001733704703EB021306FB0AF74643B7FBEC
:1023B000F1F2B6FBF1F06421B0FBF1F005FB102562
:1023C00070470000443A5C45545F53545C4150529E
:1023D0004A5C415F53545F30383239415C323031AE
:1023E000385F30325F3032345C4576696C457870E6
:1023F0006C6F69745C447269766572735C53544D9A
:102400003332463478785F48414C5F447269766570
:10241000725C5372635C73746D3332663478785FC8
:1024200068616C5F756172742E6300002DE9FE4F68
:102430000446DFF8F00284421CBFDFF8EC0284425D
:102440000D461AD0DFF8E40284421CBFDFF8E00238
:10245000844212D0DFF8DC0284421CBFDFF8D802CD
:1024600084420AD0DFF8D40284421CBFDFF8D002D5
:10247000844202D0C52100F02AF92868010402D064
:10248000000C000402D0C62100F021F96868002881
:1024900018BF012822D0112818BF02281ED01228E8
:1024A0001CBFDFF8A012884218D0DFF89C128842C7
:1024B0001CBFDFF89812884210D0DFF894128842CF
:1024C0001CBFDFF89012884208D0DFF88C128842D7
:1024D00018BF032802D0C72100F0F9F8A868002827
:1024E0001CBF0128022802D0C82100F0F0F8DFF854
:1024F0006C020190002601202F6800FA06F808EA15
:102500000707474540F0C880B0008DF800004FF045
:102510000F096868022818BF122819D128691028E5
:1025200001D20D2804D10FF24020D92100F0F5FE90
:10253000F00804EB8000016A9DF8002002F01C0204
:1025400009FA02F399432B6903FA02F2114301627B
:102550004FEA460A0321206801FA0AF16FEA010BEB
:10256000297901F0030100F09DF8206068680128D6
:1025700018BF022803D0112818BF12281BD1E86801
:10258000002818BF012808D0022818BF032804D04B
:102590000FF2D410EC2100F0C0FEA068E96800F052
:1025A00081F8A060606820EA08016868C0F3001044
:1025B000B04008436060E0680BEA0001A86800FAD8
:1025C0000AF00843E0606868C10065D500216448EE
:1025D00002910268634942F480420260006800F49C
:1025E000804002900298B00851F820309DF80020F9
:1025F00002F00C0209FA02F923EA0909494B9C424C
:1026000008BF00231DD0484B9C4208BF012318D0AF
:10261000464B9C4208BF022313D0454B9C4208BF47
:1026200003230ED0434B9C4208BF042309D0424BE6
:102630009C4208BF052304D0404B9C420CBF06239C
:10264000072303FA02F242EA090241F82020019826
:1026500001686A68F8430140D303019A48BF3943CF
:102660001160019949686A6801409303019A48BF63
:1026700039435160019989686A680140D302019A1F
:1026800048BF394391600199C96801406868820276
:10269000019848BF3943C160761C102EFFF42BAF60
:1026A000BDE8F78F0BEA000001FA0AF10843704712
:1026B00038B50D00044603D14FF4C87100F007F897
:1026C000216915EA010018BF0120C0B232BD0FF226
:1026D000980000F022BEF8B504460D4628001646C4
:1026E0000FF2840704D140F2B111384600F015FE14
:1026F000300007D0012E06D04FF4D971384600F0D3
:102700000CFE00E02D04A561F1BD38B50D000446B6
:1027100003D14FF4E471FFF7DAFF61694D40656161
:1027200031BD0000000002400004024000080240E9
:10273000000C024000100240001402400018024049
:10274000001C024000001110000021100000311098
:10275000000012100000221000003210003C014066
:102760004438024008380140443A5C45545F5354B1
:102770005C4150524A5C415F53545F3038323941BA
:102780005C323031385F30325F3032345C457669EC
:102790006C4578706C6F69745C44726976657273AD
:1027A0005C53544D3332463478785F48414C5F4433
:1027B00072697665725C5372635C73746D333266F2
:1027C0003478785F68616C5F6770696F2E630000B2
:1027D000F0B4254C254A2078254B6FF0004150BBC2
:1027E0000820656803FB05250E46B5FBF6F601FBE0
:1027F0001655401E6560F4D11E4D2E4610206768A8
:1028000003FB07278C46B7FBFCFC01FB1C776760CA
:1028100046F8047B8C4603FB0727B7FBFCFC01FB57
:102820001C776760401E46F8047BE8D1E86FC5F866
:10283000800001202070606803FB00220846B2FB84
:10284000F0F001FB10210B4A616092F8803003F038
:102850001F0352F82300C2F8800042F8231020F032
:102860004040F0BC70470000287900205FF36E3CC8
:102870000D661900D8F90020C0F3C75181B1FF29B6
:1028800006D0C110400721F0E04101F160517047CE
:1028900041020CBF40F4E0016FF00041002070479E
:1028A00000F0004100020AD0B0FA80FC00FA0CF0FF
:1028B00001F16051A1EB0C5101EBD02140057047B3
:1028C000F0B540F2FF7581EA030C0CF0004C15EAFC
:1028D00011541DBF15EA1357AC42AF42E5E0BC41AD
:1028E000C1F31301C3F31303801A994143F4801316
:1028F00004D2641E4000494180185941C90241EA8E
:102900005051B1FBF3F603FB1611A2FB0675D7EB92
:10291000C020A94102D2761E80185941C90241EA5D
:102920005051B1FBF3FE03FB1E11A2FB0E75D7EB5A
:10293000C020A94103D2AEF1010E8018594189028D
:1029400041EA9051760546EA8E2EB1FBF3F603FB81
:102950001611A2FB0675D7EB8020A94102D2761E84
:1029600080185941C90241EA50514EEA060EB1FBA6
:10297000F3F603FB1611A2FB0675D7EBC020A941A5
:1029800002D2761E80185941C90241EA5051B1FB6A
:10299000F3F703FB1711A2FB0735D3EBC020A941C6
:1029A00067F100070CBF004247F0010766F3D52727
:1029B0004FEA1E31B80814F5806412DDBD0775F1C9
:1029C000004250EB0E5051EB045111F5801F5CBFDB
:1029D00041EA0C01F0BD4CF07F6141F0E041002084
:1029E000F0BDBD076D0840EA0E5041F48011D4F1EE
:1029F0000104B4F120060ADAC4F120060200E04026
:102A000001FA06F3E1401843B24015430EE0342CBE
:102A100013DCC6F1200445EA40056D0820FA06F2F1
:102A2000154321FA06F0A1400D43002175F1004243
:102A300050F1000051EB0C01F0BD00205FEA0C01E9
:102A4000F0BDCFB992185B41B3FA83F704BFB2FA75
:102A500082F6BF190B3FB7F120062FBF02FA06F32B
:102A6000BB40C7F1200622FA06F638BF3343BA400E
:102A70001CB1E419641E33E77F4231F00041B1FA22
:102A800081F404BFB0FA80F6A4190B3CB4F120061F
:102A90002FBF00FA06F1A140C4F1200620FA06F685
:102AA00038BF3143A0403C1B1AE7AC421ABF05EACD
:102AB0001357AF4212E050EA41061CBF52EA4306E8
:102AC000BFE750EA4107304661461CBF41EA055165
:102AD000F0BD52EA430C08BFC143F0BD00204FF4E3
:102AE000001616EB410F98BF16EB430F08BF16EB0D
:102AF000410F24BFC14305E016EB430F0CBF6146F5
:102B00004CEA0551F0BD000001F000428B1AA3F120
:102B10006051B1F5801F0ADBB1F17F6F1FD242EA2D
:102B2000C102C10071F1004142EB507070470B15BA
:102B3000C3F10903212B10D2890241EA905180028E
:102B40000128494141F0004121FA03F0C3F120037B
:102B5000994071F1004150417047100070476FF08B
:102B6000000013EB103F5CBF000E42EAC0507047FC
:102B7000002201F0A5BC000090420CD141EA030CF8
:102B800050EA4C0C07D0994205D14FF4001C1CEBC5
:102B9000410F38BF89427047C11768B14840401A99
:102BA000B0FA80F29040D21CC907C2F5846241EAB3
:102BB000025202EBD021400570470000B0B581EA17
:102BC000030C0CF0004C40F2FF7515EA11541DBFC8
:102BD00015EA1357AC42AF4239E0E41923EA4553F2
:102BE00043F48013C90241F0004141EA505EC7023C
:102BF0001100A7FB020200284FF00000EEFB0120AD
:102C00004FF00001E3FB072118BF42F0010240181A
:102C100000214941E3FB0E01A4F580640F0302D2B9
:102C200052004041494154F101046CDD470872F102
:102C3000004250F1000051EB0451A1F580115CBF3E
:102C400041EA0C01B0BD4CEA05510020B0BD05EAD7
:102C50001357AC4214BFAF4241E050EA410E1CBFD3
:102C600052EA430E02E061460020B0BD24423C44DB
:102C70001BD15FEA070EF6D0090302BF0146002010
:102C8000AEF1140EB1FA81F7AEEB070401FA07FEBC
:102C90000C37C7F1200100FA07F7C8404EEA000ED2
:102CA00023EA455343F48013A2E733F00043B3FA19
:102CB00083F704BFB2FA82FE77440B3FE41BB7F1FF
:102CC000200E2FBF02FA0EF3BB40C7F1200E22FAEE
:102CD0000EFE38BF43EA0E03BA40641C82E750EA96
:102CE000410E14BF52EA430E6FF000014FF400177B
:102CF00017EB430F8ABF194617EB410FB5E74CEAB4
:102D000005510020B0BDD4F10104B4F120070FDA61
:102D1000C4F12007520828BF42F0010210FA07F55B
:102D200001FA07F7E1BF2A43E0403843E1400FE0F2
:102D3000352C98DCC7F1200452EA400220FA07F251
:102D400018BF42F0010231FA07F0A1400A43002106
:102D500072F1004250F1000051EB0C01B0BD0000D7
:102D600070B44FF0004591EA030F40F1BD806B4015
:102D7000841A71EB030604D26E40001BB141121994
:102D800073414FF4001C1CEB410F34BF7CEB430636
:102D900082E00C0DA4EB1356362E7BDC012E45EAA7
:102DA000C32341DC43EA525312BFD20292025B08B2
:102DB000240545EAC12141EA5051D2EBC020994196
:102DC00025D407D1B0FA80F610FA06F162D00020BF
:102DD000203608E0B1FA81F6B140C6F1200220FAAF
:102DE00002F21143B0404FEAF474B4EB465434F0AD
:102DF00001064FEA74040AD8D6F50016760D04F0E1
:102E00000044F04061FA06F25040F1404840C00AE8
:102E100040EA415021F0004128BF5FEA500550F1DF
:102E2000000044EBD12135E0DB0A45EAC121C90AA3
:102E3000B6F120050EDD42EA0242120CC5F1200671
:102E400003FA06F6EB4042EA06056D42984161F14D
:102E500000010DE062FA06F5F240554063FA06FC07
:102E600082EA0C02F3405A406D42904161EB03014B
:102E700011F4801F05D1641E620502D06D0040412F
:102E8000494121F48011430875F1004350F10000DD
:102E900041EB045170BC70471CEB410F15D223F07D
:102EA000004352EA43060BD04FEA4C0CBCEB410FF7
:102EB00004D80C0D661E342EB7DDEBE7801A99415D
:102EC00050EA410608BF0021E4E708BF1CEB430FAE
:102ED00028BF6FF00001DDE770B44FF0004591EAC4
:102EE000030F7FF545AF6B40841A71EB030603D2E5
:102EF000001BB141121973414FF4001C1CEB410F30
:102F000034BF7CEB430442E00C0DA4EB1356352E8A
:102F10004FDC45EAC323DB0A45EAC121C912B6F1F9
:102F200020050DDD63FA05F6EB4086EA0305124243
:102F300018BF45F00105C01851F100010CD213E093
:102F400062FA06F5F2405540F3415A40B340F3406F
:102F50005A408018594107D349085FEA30005FEAB8
:102F6000350528BF45F0010501F58011420875F1CE
:102F7000004250F1000041EB04514E0016F5001FD5
:102F800070BC38BF70470020090D090570471CEB65
:102F9000410F10D252EA43060BD0BCEB410F05D8CB
:102FA0000C0DAB43661E342EB6DD02E0AB43801839
:102FB000594170BC704770BC704700004FF4001C52
:102FC0001CEB410F94BF1CEB430F09E041EA030CDB
:102FD00050EA4C0C52EA0C0C03D28B4208BF8242DE
:102FE000704714BF9942904270470000544838B56A
:102FF000544C0FF21015606084B04FF48030A06024
:103000000020E06001206061E061002060622063D8
:103010004D48E062002020610220206201206063B0
:10302000A061201D01F066FA18B17A21284600F04F
:1030300073F9002001210090019102906946201D42
:1030400001F038FB18B18421284600F065F908200A
:10305000022100900191201D694601F02BFB18B15F
:103060008D21284600F058F905B030BD38B504462A
:1030700086B020683249884241D100213348344D1E
:1030800000910121026842F480720260032200680C
:1030900000F480700090009801910020039002924B
:1030A00001A92C48FFF7C2F9032000210122029058
:1030B0000391019201A92848FFF7B8F92748286031
:1030C00000206860A860E8604FF4806028614FF4D9
:1030D000006068614FF40050A8610020E8614FF47F
:1030E0008030286200206862284600F07BFD20B115
:1030F000BA210FF2100000F00FF9A563AC6307B01E
:1031000030BD0000443A5C45545F53545C4150521A
:103110004A5C415F53545F30383239415C32303160
:10312000385F30325F3032345C4576696C45787098
:103130006C6F69745C5372635C6164632E6300003E
:103140000020014008F800200100000F4438024030
:103150005CFA0020000002400004024010640240BB
:10316000704700003EB51D4C1D480FF280052060E1
:103170002046FEF781FB18B14721284600F0CCF825
:10318000002000900190102269462046FEF7CEFBF9
:1031900018B15021284600F0BFF837BD006810492B
:1031A000884200D0704780B586B000210D4800915C
:1031B0002021026842F0005202600322006800F001
:1031C000005000900098019100200390029201A904
:1031D0000548FFF72BF907B000BD0000A0FB002059
:1031E000007400404038024000000240443A5C4510
:1031F000545F53545C4150524A5C415F53545F30BA
:10320000383239415C323031385F30325F303234FD
:103210005C4576696C4578706C6F69745C53726359
:103220005C6461632E63000080B501F0CBFB00F0AD
:1032300011F801F0E1FB01F09BFCFFF7D7FEFFF76F
:1032400091FF00F0DDFB00F0E9FBFCF7C5FFFEF7A6
:1032500031FCFEE700B593B0002000902B480168D8
:1032600041F0805101600021006800F08050009022
:103270000098274800910121026842F44042026010
:103280004FF48032006800F44040009000980691AE
:1032900002200C904FF4800104200E900D9102202A
:1032A000642110901190129007920F9106A801F0DE
:1032B00093FC00B1FEE70F21022001910290002152
:1032C0004FF4805003910490059101A8032100F070
:1032D00053FF00B1FEE701F059F84FF47A71B0FBEB
:1032E000F1F001F004FF042001F01DFF00220F2186
:1032F0004FF0FF3001F0B8FE13B000BD0068054983
:10330000884208BF01F064BF7047000040380240A7
:103310000070004000000140FEE770472DE9F843CF
:103320000646174684B088469946B80001F058FF13
:1033300005001AD0642001F053FF040012D00D994B
:103340000C982563002203920191009002944B4651
:103350003A464146304600F00DF8204600F046F867
:10336000012004E0284601F0C4FF4FF0FF3005B013
:10337000BDE8F0832DE9F0470A9E8146306B00EBF3
:103380008202101FC0084FEAC00A0022885CB418ED
:1033900084F83400885C10B1521C1E2AF6D3089DB4
:1033A000002086F85100062D099C88BF062506F1ED
:1033B0005407F5623D6078609846301D01F0F7FFD4
:1033C00006F1180001F0F3FF3661C5F10705B5619C
:1033D00076620020B860387342464946504600F095
:1033E0003FFA306004B12660BDE8F0872DE9F04176
:1033F00000F064F8DFF8E453DFF8E483E86C401C85
:10340000E8641426A86A28BBAC62E86C012829D1BC
:10341000002706FB07F0404401F0BCFF7F1C072F8C
:10342000F7D305F1740001F0B5FF05F188073846C0
:1034300001F0B0FF284601F0ADFF05F1140001F0E6
:10344000A9FF05F1380001F0A5FF05F17400E8625D
:103450002F6307E0A86D28B9E16AA86AC26A9142A1
:1034600028BFAC62A86E401CA8660122E06A696DA4
:103470008240114369654643211D08EB060001F0B7
:1034800099FF00F07BFAA86D08B100F098F9BDE84B
:10349000F08180B578B1DFF84423116F11B100F0ED
:1034A00086F9FEE7116F491C1167002100F09AF9B7
:1034B00000F042F808B900F004F801BD044600F03D
:1034C00044BADFF890134FF080500860BFF34F8F7D
:1034D000BFF36F8F70473EB5DFF870430FF278315E
:1034E00004F19C0001900025009500234FF47A72AE
:1034F0000FF2FD10FFF712FF502101280ED181F3CA
:10350000118800F057F94FF0FF30E0660120A06508
:103510002565BDE8374000F0CBB937BD10F1010F8C
:10352000FBD181F3118800F045F9FEE7DFF81C03B9
:10353000016F491C0167704770B5DFF8A062306FFA
:103540000024002528B9502181F3118800F032F9B8
:10355000FEE700F0FAF9306F401E3067316F002946
:1035600037D1F06CD8B934E0F168CC6800F032F8AB
:1035700000F0EFF8E06A716D01228240114371653D
:103580001423DFF8CC225843211D104401F012FF10
:10359000E06AB16ACA6A904224BF0120306630688E
:1035A0000028E1D10CB100F0E1F8F46D3CB100F07D
:1035B00015F808B101203066641EF8D1F565306E4B
:1035C00038B1DFF890024FF080510125016000F022
:1035D000F1F8E5E004F1180001F011BF2DE9F8431E
:1035E000DFF8F871386F002600284FD13C6D641C5D
:1035F0003C6511D1F96A086828B1502282F311881C
:1036000000F0D8F8FEE7F86A396BF9623863786E33
:10361000401C786600F0AAF8F86EDFF83492844215
:103620004FF0140825D31AE0281D01F0E8FEA86A1F
:1036300018B105F1180001F0E2FEE86A796D012287
:1036400082401143796508FB00F0291D484401F0D0
:10365000B1FEE86AB96ACA6A904228BF0126F96ACF
:10366000086880B1F96AC868C56868688442DBD2B6
:10367000F866B86AC16A08FB01F059F8001002291F
:1036800007D3012605E04FF0FF30F1E7F86D401C4D
:10369000F865386E00B1012686E0DFF8401181B090
:1036A000086F10B101220A6620E00866DFF8A03139
:1036B000486DB0FA80F2C2F11F02142042439858BC
:1036C00038B9502181F31188BFF34F8FBFF36F8F4B
:1036D000FEE7981800F108034268526842609A4277
:1036E00004BF526842604068C2688A6201B0704795
:1036F0002DE9F041DFF85C51DFF8E480DFF8DC70A1
:103700004FF080561AE0386F401C38677869441EC5
:10371000A441FFF711FFE40F84B900F016F9386AED
:10372000C46800F016F8F86C401EF864786B401E10
:10373000786300F023F9204600F00EF8786B00283B
:10374000E1D1D8F800100129F8D92E6000F032F844
:10375000F4E7201D01F053BE10B50446206B01F0C4
:10376000C8FD2046BDE8104001F0C3BD1B49CA6A30
:10377000106818B94FF0FF33CB667047C86AC2684B
:10378000D0684268CA667047DFF8C010886D08B913
:1037900001207047086F08B9022070470020704769
:1037A00000F0ECF8284670BD3046BDE8F2835020AA
:1037B00080F31188BFF34F8FBFF36F8F7047A96AF3
:1037C000C86AE16A884207D222494FF080500860F7
:1037D000BFF34F8FBFF36F8F70470000ACF800202E
:1037E0004CF90020F8B5194D2F6D0C46A96A064614
:1037F000081D01F004FE30B9A86A696DC06A012293
:1038000082409143696516F1010F08D13CB1A86A65
:10381000011D05F13800BDE8F44001F0CBBDA86AF8
:10382000F6194660BE42A86A05D2011D286BBDE8A4
:10383000F44001F0CBBD011DE86A01F0C7FDE86E60
:10384000864238BFEE66F1BD00000000ACF80020F3
:103850004CF9002004ED00E049444C450000000014
:103860004908490010B5A0F120034FF08074996118
:10387000DC611A600FF2110159616FF0020140F82A
:10388000241D203810BD00004E494A68502012F116
:10389000010F06D080F31188BFF34F8FBFF36F8FF6
:1038A000FEE780F31188BFF34F8FBFF36F8FFEE702
:1038B0003EB54548454B026850219A4200F03CF81D
:1038C0000368434CA34200F037F842493D4C0A7864
:1038D0000192FF230B700B788DF800309DF80020CB
:1038E00002F050022270072205E09DF800305B00D4
:1038F000521E8DF800309DF800301D06F5D41202DE
:1039000002F4E062A260019A0A70016A41F4700157
:103910000162016A41F07041016200F061F800202B
:10392000606001F0C5FD2C48016841F04041016034
:1039300001F0B2FD00203EBD06D181F31188BFF336
:103940004F8FBFF36F8FFEE77047502080F31188D1
:10395000BFF34F8FBFF36F8F1A494A68521C012A79
:103960004A600AD11D490A68130606D080F31188FF
:10397000BFF34F8FBFF36F8FFEE770471149486861
:1039800038B9502080F31188BFF34F8FBFF36F8F8A
:10399000FEE7401E486008BF80F31188704780B57D
:1039A000502080F31188BFF34F8FBFF36F8FFFF765
:1039B00015FE18B109494FF080500860002181F3CD
:1039C000118801BD1879002000ED00E071C20F419F
:1039D00070C20F4100E400E034EF00E004ED00E0CD
:1039E000054906480A684FF47A73B2FBF3F35B1E8D
:1039F00043600721016070472479002010E000E057
:103A000080B55C485C4901604FF4E13100F014F886
:103A100018B1BDE8044050211AE001BD80B55748F7
:103A2000574901604FF4164100F006F818B1BDE89F
:103A3000044063210CE001BD416000218160C16050
:103A400001610C21416100218161C161FEF7E0B893
:103A50000FF24410FFF760BC2DE9F843044686B02E
:103A60002268454B47490FF23019474D47489A4263
:103A70004FF400364FF480674FF0006836D10022D3
:103A800000924FF4C0624B6843F010034B60022376
:103A9000496801F0100100910099019202930121FF
:103AA0000391032207230492059301A9FEF7BEFCAC
:103AB00037482860C5F804800020A860E8602F61BE
:103AC0006861A861E8612E626862284600F08AF8A1
:103AD00018B18D214846FFF71FFC6563AC630022D7
:103AE0000521252001F0C0FA25203DE0244B9A4213
:103AF0003CD1002200920C220B6843F400330B608F
:103B00000223096801F4003100910099019201211A
:103B100003910322072105910293049201A9FEF764
:103B200085FC1C482866C5F864800020A866E86605
:103B30002F676867A867E867C5F8806005F18406A5
:103B4000306005F1600000F04DF818B1BA21484628
:103B5000FFF7E2FB05F1600060637461002205215C
:103B6000262001F081FA262001F0AFFA07B0BDE867
:103B7000F0830000BCFA002000100140FCFA002095
:103B8000004400404038024048F700200000024056
:103B90004064024088600240443A5C45545F53549C
:103BA0005C4150524A5C415F53545F303832394176
:103BB0005C323031385F30325F3032345C457669A8
:103BC0006C4578706C6F69745C5372635C7573617B
:103BD00072742E630000000001480068704700BF47
:103BE000B8FB00207CB50446FFF7F6FF05460CB98C
:103BF000012076BD2068DFF878140FF20456884261
:103C00001CBFDFF8701488423AD0DFF86C14884289
:103C10001CBFDFF86814884232D0DFF86414884291
:103C20001CBFDFF8601488422AD0DFF85C14884299
:103C30001CBFDFF85814884222D0DFF854148842A1
:103C40001CBFDFF8501488421AD0DFF84C148842A9
:103C50001CBFDFF84814884212D0DFF844148842B1
:103C60001CBFDFF8401488420AD0DFF83C148842B9
:103C70001CBFDFF83814884202D0CA2100F01AF9BC
:103C80006068002818BFB0F1007F2CD0B0F1806FC1
:103C900018BFB0F1C06F26D0B0F1006F18BFB0F1FF
:103CA000206F20D0B0F1406F18BFB0F1606F1AD014
:103CB000B0F1805F18BFB0F1905F14D0B0F1A05F99
:103CC00018BFB0F1B05F0ED0B0F1C05F18BFB0F157
:103CD000D05F08D0B0F1E05F18BFB0F1F05F02D064
:103CE000CB2100F0E7F8A06800281CBF40288028FE
:103CF00002D0CC2100F0DEF8E068B0F5007F18BFFC
:103D0000002802D0CD2100F0D5F82069B0F5806FF1
:103D100018BF002802D0CE2100F0CCF8606900283E
:103D20001CBFB0F5006FB0F5805F02D0CF2100F06E
:103D3000C1F8A06900281CBFB0F5005FB0F5804F46
:103D400002D0D02100F0B6F8E06900281CBFB0F521
:103D5000807F202802D0D12100F0ACF8206A002812
:103D600018BFB0F5803F08D0B0F5003F18BFB0F5E0
:103D7000403F02D0D22100F09DF8606A80B3042851
:103D800004D0D32100F096F8606A48B3A06A0028F6
:103D900018BF012806D0022818BF032802D0D82156
:103DA00000F088F8E06A002818BFB0F5000F08D0CE
:103DB000B0F1807F18BFB0F1C07F02D0D92100F0F0
:103DC00079F8206B002818BFB0F5001F08D0B0F5B7
:103DD000800F18BFB0F5C00F02D0DA2100F06AF8EA
:103DE00004F1340600203070022000F066F82168EB
:103DF0000868C20720D5FFF7EFFE401B0628F6D360
:103E000020203062032015E0B0F5005F09D1032DBA
:103E100042D8DFE805F00C0A0C02B1F1C07F3BD1BB
:103E200005E0022D03D9ED1E36D1C80134D540205E
:103E300030620120707076BD0A68DFF874020240BB
:103E400060680243A0680243E068024320690243BD
:103E500060690243A0690243E0690243206A0243A9
:103E6000606A042803D1E36A206B03431A430A60A3
:103E700023685A69606AD208042840EAC2020BD15A
:103E8000A56AE16A2A4339B1A0690028BCD1002D96
:103E900018BF022DC9D0C0D35A61204600F01AF9CC
:103EA000B16A3F228A408260002030620120707037
:103EB000002076BD3046FFF730BA70702068016888
:103EC000490849000160704790F83510022903D075
:103ED0008022426501207047052180F83510006876
:103EE0000168490849000160002070472DE9FC4144
:103EF000044604F134060020704900904FF4165037
:103F0000776A0A683D68B2FBF0F8B06A082100F0F1
:103F1000D7F80ED02068026853070AD5036823F04B
:103F200004030360B06A8140B960306A40F0010068
:103F30003062B06A5F4900F0C3F808D021684A696E
:103F4000110604D5B860306A40F002003062B06AF1
:103F5000594900F0B5F808D021680A68930704D5DC
:103F6000B860306A40F0040030621021B06A00F09E
:103F7000A7F81BD021680A68130717D5B860206816
:103F800001684A0307D5006801030BD5716969B15F
:103F9000204688470AE00168CA0503D4026822F077
:103FA00008020260F16809B120468847B06A202102
:103FB00000F086F841D021680A68D3063DD5B86084
:103FC00020687178052920D1026822F0160202606B
:103FD0002068416921F080014161F168002904BF36
:103FE0007069002804D02068016821F00801016090
:103FF0003F22B06A8240BA6000F066F8F169002999
:1040000034D02046BDE8FC41084701684A0307D583
:10401000006801030DD4316979B1204688470CE06E
:104020000168CA0505D4026822F01002026000F09F
:104030004BF8B16809B120468847306AB0B1316A9F
:10404000C8070DD50520FFF738FF20680099491CE7
:104050008845009102D30168CA07F7D400F034F80C
:10406000B16919B12046BDE8FC410847BDE8F381BC
:1040700010600240286002404060024058600240E8
:104080007060024088600240A0600240B860024058
:1040900010640240286402404064024058640240B8
:1040A0007064024088640240A0640240B864024028
:1040B0003F8010E00100800004008000247900208F
:1040C00001FA00F005427047002030700120707046
:1040D0007047000081B0016801F0FF02103A182318
:1040E000B2FBF3F20FF280039B5CC365890A89027D
:1040F000042A28BF091D8165084601B070470000E9
:10410000443A5C45545F53545C4150524A5C415FB1
:1041100053545F30383239415C323031385F30329D
:104120005F3032345C4576696C4578706C6F6974C9
:104130005C447269766572735C53544D3332463415
:1041400078785F48414C5F4472697665725C53725F
:10415000635C73746D3332663478785F68616C5F6A
:10416000646D612E63000000000610160006101634
:1041700070477047704700002DE9F04705460C4630
:1041800028680FF2802808B1102803D340F23521A7
:1041900000F0F9F8002C18BF012C0FD0022C18BF2A
:1041A000032C0BD0042C18BF052C07D0062C18BFED
:1041B000072C03D040F2362100F0E5F8DFF82C623E
:1041C000306800F00F00A04202D200F0D6F83DD1D6
:1041D0002878DFF81C7281071BD5A868002818BF53
:1041E000802810D0902818BFA0280CD0B02818BF65
:1041F000C02808D0D0281CBFE028F02803D040F207
:104200004D2100F0C0F8B968A86821F0F001014321
:10421000B9602878C10740F198806868B8B1012872
:104220000AD0022818BF03280DD04FF4157100F0F2
:10423000AAF86868012802D13868810305E00228DD
:1042400018BF032803D13868810103D485E0396899
:104250008807FBD5B9686868890840EA8101B960B8
:1042600041F28939FFF7B8FC8246686801280BD112
:10427000B86800F00C00042867D0FFF7ADFC00F030
:1042800078F8F5D303205EE002280AD1B86800F080
:104290000C00082859D0FFF79FFC00F06AF8F5D30E
:1042A000F0E703285BD1B86800F00C000C284CD074
:1042B000FFF792FC00F05DF8F5D3E3E728784107BB
:1042C00017D5E868002818BFB0F5805F0BD0B0F5AF
:1042D000A05F1CBFB0F5C05FB0F5E05F03D040F257
:1042E000B22100F050F8B968E86821F4E0510143C8
:1042F000B9602878010718D52869002818BFB0F5DB
:10430000805F0BD0B0F5A05F1CBFB0F5C05FB0F50B
:10431000E05F03D040F2B92100F035F8B8682969B0
:1043200020F4604040EAC100B86000F09FF8B9682E
:10433000304AC1F30311515C2F4AC840106000207D
:1043400001F0C4F80020BDE8F087306800F00F00ED
:104350008442B3D200F011F8B0D00120F3E7B8687E
:1043600010F00C0FF1D0FFF737FC00F002F8F6D395
:1043700088E7A0EB0A00484570473470316801F0C7
:104380000F01A14270474046FEF7C7BF1A480068B8
:1043900070471A48184A0168194B1068C1F3822106
:1043A00006E01648144A0168154B1068C1F3423103
:1043B000595CC840704710B50F2202600F4A13685D
:1043C00003F003034360146804F0F004846013688E
:1043D00003F4E053C3601268D20802F4E0520261B1
:1043E0000248026802F00F020A6010BD003C024061
:1043F00000380240845A000824790020083802401E
:10440000145C0008443A5C45545F53545C4150527C
:104410004A5C415F53545F30383239415C3230314D
:10442000385F30325F3032345C4576696C45787085
:104430006C6F69745C447269766572735C53544D39
:104440003332463478785F48414C5F447269766510
:10445000725C5372635C73746D3332663478785F68
:1044600068616C5F7263632E6300000011494868E5
:1044700000F00C00042802D0082802D017E00E48F3
:10448000704708680A68530200F03F000B684CBF91
:10449000094A0A4AB2FBF0F2C3F3881042430868A3
:1044A000C0F30140401C4000B2FBF0F070470348ED
:1044B000704700BF0438024000127A000024F40064
:1044C00000B500BF130096469446103928BFA0E8F7
:1044D0000C50FAD85FEA417C28BF0CC048BF40F8B6
:1044E000042BC90728BF20F8022B48BF00F8012B76
:1044F00000BD0000F8B5044600250CB90120F2BD4E
:104500002068DFF834130FF23436884203D040F2CB
:104510000D1100F08EF96068002818BFB0F5803FDB
:1045200009D0B0F5003F18BFB0F5403F03D04FF4BD
:10453000877100F07EF9A068002818BFB0F1807F75
:1045400009D0B0F1007F18BFB0F1407F03D040F236
:104550000F1100F06EF92069002818BF012803D060
:104560004FF4887100F065F9A069002818BF012890
:1045700003D040F2111100F05CF9A06ADFF8347446
:10458000002818BFB0F1807F2ED0B0F1007F18BF97
:10459000B0F1407F28D0B0F1806F18BFB0F1A06FAC
:1045A00022D0B0F1C06F18BFB0F1E06F1CD0B0F1F5
:1045B000006F18BFB0F1106F16D0B0F1206F18BFA8
:1045C000B0F1306F10D0B0F1406F18BFB0F1506F44
:1045D0000AD0B0F1606F1CBFB0F1706FB84203D069
:1045E0004FF4897100F025F9E068002818BFB0F594
:1045F000006F03D040F2131100F01BF9E06908B11D
:10460000102803D94FF48A7100F013F9206B0028A9
:1046100018BF012803D040F2151100F00AF96069B3
:1046200001281CBF0028022803D04FF48B7100F032
:1046300000F9206A002818BF012803D040F21711A2
:1046400000F0F7F8A06AB8421CBFE06A00280BD05F
:10465000B0F1805F1CBFB0F1005FB0F1405F03D0EC
:1046600040F21B1100F0E5F804F13C06706820B937
:10467000B56030702046FEF7F9FC7068C10610D4B2
:10468000706820F4885040F002007060204600F00E
:1046900009F9B560706820F0020040F00100706018
:1046A00000E00125002030702846F2BD0FF28C108A
:1046B000FEF733BE7CB504460D46002000902A6804
:1046C0000FF27816122A03D940F2175100F0B1F810
:1046D000686808B1102803D94FF4A36100F0A9F865
:1046E000A868002818BF01280FD0022818BF032887
:1046F0000BD0042818BF052807D0062818BF0728A4
:1047000003D040F2195100F094F894F83C000128CD
:1047100001D1022076BD012184F83C1007222968CE
:1047200020680A2912D30A39C36801EB41018A4083
:1047300023EA0202C260C1682B68AA68A3F10A06D4
:1047400006EB4606B2401143C1600FE0036901EB7E
:10475000410102FA01F123EA0101016101692B68BB
:10476000AA6803EB43039A40114301611F22696861
:1047700007290CD2491E436B00F055F84263416B88
:104780006B682A885E1E00F049F841631BE00D2922
:104790000CD2C91F036B00F046F80263016B6B6813
:1047A0002A88DE1F00F03AF801630CE00D39C36A75
:1047B00000F039F8C262C16A6B682A88A3F10D065D
:1047C00000F02CF8C1621C49884222D129687A483D
:1047D000122903D1026842F480020260296810297C
:1047E00018BF112915D1016841F400010160286842
:1047F00010280ED17249714B0A68B2FBF3F30A20FC
:104800004343009302E00099491E0091009800285C
:10481000F9D1002184F83C10002076BD06EB860615
:10482000B2401143704701EB81018A4023EA020242
:1048300070473046FEF771BD00200140443A5C45A8
:10484000545F53545C4150524A5C415F53545F3053
:10485000383239415C323031385F30325F30323497
:104860005C4576696C4578706C6F69745C447269FC
:10487000766572735C53544D3332463478785F48B2
:10488000414C5F4472697665725C5372635C737409
:104890006D3332663478785F68616C5F6164632E73
:1048A0006300000010B544490446086820F4403015
:1048B00008600A68606802430A602168486820F45A
:1048C000807048604868226940EA02204860486871
:1048D00020F0407048604A68A06802434A608868D7
:1048E00020F4006088608A68E06802438A60A06AF9
:1048F000304A904210D08A6822F070628A608A68DA
:10490000A06A02438A60886820F0405088608A6804
:10491000E06A02438A6007E0886820F0706088607F
:10492000886820F040508860886820F00200886025
:104930008868A26940EA42008860206AB8B1606A6B
:1049400008B1092803D340F22961FFF7AFFE2068C0
:10495000416841F400614160416821F46041416077
:104960004168626A521E41EA4231416003E0486890
:1049700020F4006048602068C16A21F47001C162BF
:10498000C16AE269521E41EA0251C162816821F4A2
:10499000007181608168226B41EA422181608168F7
:1049A00021F4806181608168626941EA82218160CD
:1049B00010BD00000100000F0423014040420F0021
:1049C0002479002080B50B48016841F40071016032
:1049D000026842F480620260016841F48071016003
:1049E000032000F024FB002000F070FD00F0ACFD7F
:1049F000002002BD003C024070B586B0002005904A
:104A00004D4E4E484E4C01684E4D41F00401016040
:104A1000026802F0040205920022059905920368DB
:104A200043F080030360016801F08001059105995E
:104A30000592036843F001030360016801F001017E
:104A40000591059905924FF40051036843F0020364
:104A50000360006800F00200059005983046FDF7FD
:104A60003AFE01224FF481712046FDF734FE002208
:104A7000C0212046FDF72FFE00224FF400512846AA
:104A8000FDF729FE01224FF440412846FDF723FEA1
:104A90004FF4005000F064F83046FDF7C7FC0121E8
:104AA0000191029102200321009000F04DF841F69F
:104AB000100000F04EF82046FDF7B8FC4FF4E0700F
:104AC00001210090019100200321029000F03CF8A8
:104AD00040F206400021009001910291284600F02A
:104AE00035F84FF49C5000F034F82846FDF79EFC52
:104AF0004FF4204000F034F82846FDF797FC4FF4BF
:104B00008040009001210191002003210290039137
:104B1000284600F01BF8202000900221002001917F
:104B20000290032105200391049069462846FDF771
:104B30007DFC06B070BD0000000802403038024025
:104B40000000024000040240039120466946FDF740
:104B50006DBC0090032100200191029069467047CE
:104B60000090012100200191029003906946704756
:104B700080B5002000901748016841F48001016071
:104B8000026802F48002009200220099009205213E
:104B9000036843F400130360006800F40010009001
:104BA0000098102000F060FA102000F08EFA002229
:104BB0000521382000F058FA382000F086FA00224B
:104BC00005213A2000F050FABDE802403A2000F0FA
:104BD0007CBA00BF303802402DE9F84305460FF299
:104BE000A4382868102803D340F6DE3100F004FA18
:104BF0002878DFF88C43C1074DD5686800281CBFB2
:104C0000B0F5803FB0F5A02F03D040F6E33100F0BF
:104C1000F3F9A06800F00C00042807D0A06800F0A9
:104C20000C0008280BD16068410208D52168880370
:104C300031D56868002840F0B58001209EE16868A1
:104C4000B0F5803F06D0B0F5A02F216807D141F420
:104C500080212160206840F48030206006E021F44B
:104C600080312160226822F480222260686868B165
:104C7000FEF7B2FF07462168880300F19380FEF734
:104C8000ABFFC01B6528F6D3032077E1FEF7A4FF36
:104C900007462068810340F18580FEF79DFFC01B19
:104CA0006528F6D3F0E7FEF797FF801B022840F255
:104CB000C080E9E7E86870B101213960FEF78CFF38
:104CC00006462068810700F19780FEF785FF801B6C
:104CD0000228F6D9D8E73860FEF77EFF064620683E
:104CE000810763D5FEF778FF801B0228F7D9CBE751
:104CF00000203060FEF770FF0646606F810740F1CC
:104D00009C80FEF769FF801B0228F6D9BCE70528C6
:104D1000206F06D140F004002067206F40F00100B2
:104D200005E0400840002067206F20F00400206765
:104D300041F28936A86868B1FEF74EFF8146206FC0
:104D4000810700F1A980FEF747FFA0EB0900B04200
:104D5000F5D399E7FEF740FF8146206F81076ED5B6
:104D6000FEF73AFFA0EB0900B042F6D38CE7FEF75E
:104D700033FF801B022840F2E28085E7FEF72CFF1C
:104D8000401B022840F2F5807EE700F031F905462D
:104D90002068810140F1F180FEF71EFF401B0228D0
:104DA000F6D971E72878DFF85C7281072BD5E868BF
:104DB000002818BF012803D040F61B4100F01CF961
:104DC0002869202803D340F61C4100F015F9A0689B
:104DD00010F00C0F09D0A06800F00C0008287FF438
:104DE00069AF606841023FF565AF2168880703D568
:104DF000E86801287FF421AF2068296920F0F800D5
:104E000040EAC10020602878010716D568697E4E07
:104E1000002807D0012807D040F6624100F0ECF8E6
:104E2000686900283FF464AF01213160FEF7D4FEC9
:104E30000646606F81077FF536AF297848072BD586
:104E4000A86800281CBF0128052803D040F68C4123
:104E500000F0D2F800200090216C694E41F08051A2
:104E60002164206C00F0805000900098316841F47B
:104E700080713160FEF7B0FE81463068C10506D40E
:104E8000FEF7AAFEA0EB09000228F6D9FCE6A86806
:104E900001287FF43CAF40E7A86900286DD00128C5
:104EA00018BF022806D040F6C14100F0A5F8A86955
:104EB000002862D0A16801F00C0108293FF4BDAEC2
:104EC000A86902287FF461AFE869002818BFB0F52F
:104ED000800F03D040F6CA4100F08EF8286A4028BF
:104EE00003D340F6CB4100F087F8686A323840F2CD
:104EF0007F11884203D340F6CC4100F07DF8A86AC8
:104F0000022818BF042807D0062818BF082803D095
:104F100040F6CD4100F070F8E86A801E0E2803D3F9
:104F200040F6CE4100F068F8286B801E052803D9B2
:104F300040F6CF4100F060F800F05AF806462068CD
:104F400081013FF514AFE969286AAA6A0143686ADA
:104F5000520841EA8011521EE86A41EA02412A6B76
:104F600041EA006141EA02716160012000F041F80C
:104F70000546206881017FF501AF0020BDE8F2837E
:104F800000380240443A5C45545F53545C415052EF
:104F90004A5C415F53545F30383239415C323031C2
:104FA000385F30325F3032345C4576696C457870FA
:104FB0006C6F69745C447269766572735C53544DAE
:104FC0003332463478785F48414C5F447269766585
:104FD000725C5372635C73746D3332663478785FDD
:104FE00068616C5F7263635F65782E630000000028
:104FF00000203866FEF7F0BD4046FEF78EB900008F
:105000000070004000004742800E4742090100281E
:1050100081B007D5DFF8342100F00F00104400F80C
:10502000041C02E0DFF82821115401B0704710B5CC
:105030000446072C18BF062C07D0052C1CBF042CD7
:10504000032C02D0A42100F06AF8DFF808110A68E6
:105050004FF6FF002402024004F4E0641443DFF83A
:10506000F80004430C6010BDF8B51546102D044639
:105070000E460FF2F00703D3BC213846FEF74DF978
:10508000102E03D3BD213846FEF747F9DFF8C400E0
:105090000168C1F30220C0F10701052928BF0421DE
:1050A000021D072A34BF0020C01E012202FA01F1AE
:1050B000491E0E40864002FA00F0401E054045EAB7
:1050C00006012046BDE8F440A0E738B504462500B7
:1050D00002D5D02100F023F800F01DF8DFF87C00A5
:1050E000FFE702FA04F46D0940F8254031BD10B520
:1050F000401EB0F1807F01D3012010BD184C6060CC
:105100000F214FF0FF30FFF781FF0022A260072040
:105110002060002010BD012204F01F0470470FF230
:105120004400FEF7FAB810B504280D4C09D018B1A8
:1051300040F2DB11FFF7F3FF226822F00402226045
:1051400010BD206840F00400206010BD18ED00E0A4
:1051500000E400E00CED00E00000FA0500E100E0F2
:1051600010E000E0443A5C45545F53545C415052B7
:105170004A5C415F53545F30383239415C323031E0
:10518000385F30325F3032345C4576696C45787018
:105190006C6F69745C447269766572735C53544DCC
:1051A0003332463478785F48414C5F4472697665A3
:1051B000725C5372635C73746D3332663478785FFB
:1051C00068616C5F636F727465782E630000000025
:1051D00002480168491C0160704700BFB8FB00200D
:1051E0002DE9F8430446FEF7A1F9694FB8684FF07E
:1051F0000009002508BB07F1180307F1180113F097
:10520000070F4FF4FA400A4605D0CA1DD208D20053
:10521000C2F5FA40081880180838C008C0003A6083
:105220007D60B86045600560811A5160106050680B
:105230003861F8604FF0004078614FF050087869AD
:10524000044233D194B3083414F0070F1FBF04F1A4
:10525000080004F00704041B14F0070F02D000F04C
:1052600041F8FEE714B3F868A0421FD33E68394600
:105270007068A04223D2306800281CBF3146064621
:10528000F6D11CE0301D02517460084600F05BF856
:105290007168F8683A69401AF860904238BF38611E
:1052A000786901437160356009F00705FEF744F93C
:1052B00015B100F017F8FEE74846BDE8F283B8687C
:1052C0008642F3D0326808680A6000F10809726803
:1052D000121B112ADCD3311911F00700D2D000F0D3
:1052E00001F8FEE788F31188BFF34F8FBFF36F8F8C
:1052F0007047002800D1704738B5A0F10804244D4C
:1053000061686A695023114202D100F015F8FEE786
:10531000206810B100F010F8FEE791436160FEF7DD
:1053200005F9E96860684118E960204600F00BF86B
:10533000BDE83140FEF700B983F31188BFF34F8F0A
:10534000BFF36F8F704730B511490A4600E022461F
:1053500014688442FBD35368D418844203D1406854
:10536000C3185360104643681468C518A54208D195
:1053700089688C4204D06168CB184360246800E0DF
:105380000C460460824218BF106030BD000000006F
:105390003079002000F1080141604FF0FF31816059
:1053A00000F10801C1600161002101607047002126
:1053B0000161704742684A6093688B6093685960E6
:1053C000916008610168491C0160704730B50A6846
:1053D00012F1010F08BF036907D000F1080300E0D4
:1053E00023465C682568AA42FAD25A684A609160EE
:1053F0008B60596008610168491C016030BD4368D9
:10540000016982689A60836842685A604A68824289
:1054100004BF82684A60002202610868401E08607A
:1054200070470000EFF30980BFF36F8F244B1A68B9
:105430001EF0100F08BF20ED108A20E9F04F106019
:1054400008B44FF0500080F31188BFF34F8FBFF3C3
:105450006F8FFEF722F94FF0000080F3118808BC2F
:1054600019680868B0E8F04F1EF0100F08BFB0ECE4
:10547000108A80F30988BFF36F8F7047104B19684B
:105480000868B0E8F04F80F30988BFF36F8F4FF0E2
:10549000000080F3118870470A480068006880F3B4
:1054A000088862B661B6BFF34F8FBFF36F8F00DF1E
:1054B000DFF81400016841F47001016070470000DA
:1054C000D4F8002008ED00E088ED00E018B50146B2
:1054D00087B000221920FFF7C7FD1920FFF7F5FD5F
:1054E00000200090144C1548016841F00101016052
:1054F00001A9006800F001000090009802A8FEF7E2
:105500005AFFFEF74EFF0E492160002240F2E731BC
:10551000E1602261A2600B49B0FBF1F0401E6060C7
:10552000204600F04FF818B9204600F0A3F800E03C
:10553000012008B010BD00003CFB002044380240B0
:105540000000014040420F0080B5002000901C4840
:10555000016841F480410160006800F480400090DF
:1055600000980320FFF763FD002200216FF00B007D
:10557000FFF77AFD002200216FF00A00FFF774FDAB
:10558000002200216FF00900FFF76EFD00220021CC
:105590006FF00400FFF768FD002200216FF00300A8
:1055A000FFF762FD00220F216FF00100FFF75CFDA5
:1055B000BDE8084000220F214FF0FF30FFF754BD37
:1055C0004438024038B5040001D1012032BD00F05A
:1055D000BAF818BFB0F1804F2CD000F0D7F81CBF3C
:1055E000DFF83811884225D000F0CCF81CBFDFF876
:1055F000301188421ED000F08DF81CBFDFF8241156
:10560000884217D000F0C6F81CBFDFF81C11884292
:1056100010D000F0A3F81CBFDFF81011884209D0A9
:1056200000F0A0F81CBFDFF83011884202D0D92169
:1056300000F086F8A068002818BF102807D020289E
:105640001CBF4028602802D0DA2100F079F82069D8
:1056500000281CBFB0F5807FB0F5007F02D0DB21B1
:1056600000F06EF800F068F818B900F061F800F08A
:10567000D9F945E010B500F03DF818BFB0F1804F02
:105680002DD000F083F81CBFDFF89010884226D0A0
:1056900000F078F81CBFDFF8881088421FD000F0B7
:1056A00039F81CBFDFF87C10884218D000F072F87F
:1056B0001CBFDFF87410884211D000F04FF81CBFF7
:1056C000DFF8681088420AD000F04CF81CBFDFF801
:1056D0008810884203D04FF4B27100F04BF8206874
:1056E000C16841F00101C160026842F0010202603C
:1056F000002010BD0446DFF874102068884270470F
:1057000002206870211D206800F0F6F80120687002
:10571000002032BDDFF86810884270470008004062
:105720000010004000040140004401400018004007
:10573000002129702046704704F1380568787047C9
:105740002846FDF7EABD2068DFF82010DFF850504A
:10575000884270470000000000200040DFF8101071
:1057600088427047DFF83C108842704700000140D3
:1057700000480140DFF82800FDF7CFBD0000000021
:1057800000140040DFF8201088427047DFF81C103A
:10579000884270470149884270470000004001403C
:1057A000BC590008001C0040000C004000040040F0
:1057B00010B50446206801698A0715D5C1688A07B3
:1057C00012D56FF00202026101212176806910F08A
:1057D000030F204602D000F026F903E000F024F980
:1057E00000F087F800202076206801694A0715D567
:1057F000C1684A0712D56FF00402026102212176C6
:10580000806910F4407F204602D000F00CF903E0DC
:1058100000F00AF900F06DF8002020762068016998
:105820000A0715D5C1680A0712D56FF00802026190
:1058300004212176C06910F0030F204602D000F049
:10584000F2F803E000F0F0F800F053F800202076C2
:1058500020680169CA0615D5C168CA0612D56FF05D
:105860001002026108212176C06910F4407F2046B1
:1058700002D000F0D8F803E000F0D6F800F039F8D4
:105880000020207620680169CA0708D5C168CA07C8
:1058900005D56FF0010202612046FDF72FFD20685B
:1058A00001690A0608D5C1680A0605D56FF08002AD
:1058B0000261204600F0B9F8206801694A0608D55F
:1058C000C1684A0605D56FF040020261204600F02B
:1058D000ADF8206801698A060AD5C1688A0607D52D
:1058E0006FF0200202612046BDE8104000F09FB832
:1058F00010BD204600F09CB8F0B5DFF8BC4005684C
:10590000274B284E284FDFF8A4C0A04218BFB0F1A3
:10591000804F07D0604518BFB84203D0B04218BFCF
:1059200098420DD14A6825F070051543A04218BF72
:10593000B0F1804F19D060451CBFB842B04214D0BE
:1059400098421CBF154A90420FD0114A90421CBF8A
:10595000DFF86020904208D00F4A90421FBFDFF866
:10596000502090420B4A904203D1CA6825F44075FA
:1059700015430560A0428A68C2620A68826212BF4B
:1059800098420969016301214161F0BD00000000F6
:105990000044014000200040001800400040014049
:1059A00000040140000C00400008004000040040DA
:1059B000001C00400048014000000140443A5C45A2
:1059C000545F53545C4150524A5C415F53545F30C2
:1059D000383239415C323031385F30325F30323406
:1059E0005C4576696C4578706C6F69745C4472696B
:1059F000766572735C53544D3332463478785F4821
:105A0000414C5F4472697665725C5372635C737477
:105A10006D3332663478785F68616C5F74696D2EBF
:105A200063000000704770477047704770477047C9
:105A3000704700000E48016841F4700101600022C7
:105A40000C49086840F0010008608A600A480A684A
:105A500002400A60002209484860086820F480205B
:105A60000860CA604FF00060054908607047000098
:105A700088ED00E000380240FFFFF6FE1030002401
:105A800008ED00E000000000000000000102030437
:105A9000060708097047FEE7FEE7FEE7FEE77047E6
:105AA000FCF72BB80848FEF721BA0848FFF780BE7C
:105AB0000748FCF762BA0748FCF75FBA0648FEF7EA
:105AC00015BA0648FEF712BAA8F700203CFB0020E2
:105AD000BCFA0020FCFA00205CFA002048F7002005
